S0170000456173795F4D616E6167656D656E742E737265631F
S11300000C9456000C9468000C9468000C946800DE
S11300100C9468000C9468000C9468000C946800BC
S11300200C9468000C9468000C9468000C946800AC
S11300300C9468000C9468000C9468000C9468009C
S11300400C9468000C9468000C9468000C9468008C
S11300500C9468000C9468000C9468000C9468007C
S11300600C9468000C9468000C9468000C9468006C
S11300700C9468000C94AE000C9468000C94680016
S11300800C9468000C9468000C9468000C9468004C
S11300900C9468000C9468000C9468000C9468003C
S11300A00C9468000C9468000C94680011241FBE22
S11300B0CFEFDAE0DEBFCDBF21E0A0E0B1E001C0C8
S11300C01D92A230B207E1F70E946A000C94D60098
S11300D00C94000085B7806885BF85B7806885BFAC
S11300E0E1E6F0E080E880831082529A539A5B9AAA
S11300F08098ECE7F0E080818F7780838081806452
S1130100808380818062808380818E7F80838081F0
S11301108D7F808380818B7F80838081877F8083B4
S113012080818F7E8083EBE7F0E080818F7D808308
S1130130EAE7F0E08081816080838081826080834F
S113014080818460808380818068808380818860EE
S113015080837894808180648083FFCF1F920F9284
S11301600FB60F9211248F939F93EF93FF939BB13C
S113017084E089278BB98091780080930101809174
S11301807900809300018D3C10F45B9801C05B9A68
S1130190EAE7F0E0808180648083FF91EF919F9192
S11301A08F910F900FBE0F901F901895F894FFCF6A
S9030000FC
